:100000000C945D000C9485000C9485000C94A71052
:100010000C94A7100C94A7100C9485000C948500E8
:100020000C9485000C9485000C9485000C94D011E0
:100030000C9485000C9485000C9485000C9485002C
:100040000C945D100C9485000C942B100C940510EE
:100050000C9485000C9485000C9485000C9485000C
:100060000C94B1100C9485000000000024002700BF
:100070002A0000000000250028002B0004040404CE
:100080000404040402020202020203030303030342
:10009000010204081020408001020408102001021F
:1000A00004081020000000080002010000030407FB
:1000B00000000000000000008C1211241FBECFEFD2
:1000C000D8E0DEBFCDBF12E0A0E0B1E0E8E3F2E3AC
:1000D00002C005900D92AA31B107D9F725E0AAE137
:1000E000B2E001C01D92AB34B207E1F710E0CDE5FC
:1000F000D0E004C02197FE010E94E017CC35D10763
:10010000C9F70E94A0130C941A190C940000862FB2
:10011000E0910103F0910203309711F0BA010994C4
:100120000895862FE091FF02F0910003309711F0BF
:10013000BA0109940895862FE091FD02F091FE0224
:10014000309711F0BA0109940895862FE091FB02CF
:10015000F091FC02309711F0BA0109940895862FAE
:10016000E091F902F091FA02309711F0BA01099486
:100170000895862FE091F702F091F802309711F080
:10018000BA01099408950895862F642FE09103031E
:10019000F0910403309711F0A90109940895E091BA
:1001A0000503F0910603309709F009940895CF9361
:1001B000DF93FC01A081B181109701F1EC01ED9179
:1001C000FC9111970190F081E02D69EFCD01099527
:1001D00088819981DC01ED91FC910190F081E02D05
:1001E00062E0099588819981DC01ED91FC91019093
:1001F000F081E02D65E0DF91CF910994DF91CF91FF
:100200000895A091AA04B091AB04ED91FC911197CF
:100210000190F081E02D682FCD0109941F93CF93B9
:10022000DF93182FEB01809171049091720468178D
:10023000790760F480916F0490917004C80FD91F02
:10024000188380E0DF91CF911F910895E0919E0483
:10025000F0919F04309711F481E0F4CF81E0809316
:100260006E0480918A0490918B04099580917104A9
:1002700090917204C817D90778F7DCCFCF93DF933A
:10028000EC01FB0130E020E0C901880F991F8C17B9
:100290009D0778F44081DB014D93BD011197918159
:1002A000979599279795942B9C932F5F3F4F329664
:1002B000EBCFC901DF91CF910895009721F0805CC9
:1002C0009F4F0C94D7000895AF92BF92CF92DF92C8
:1002D000EF92FF920F931F93CF93DF936C017B01FB
:1002E0008B01040F151FEB015E01AE18BF08C0178C
:1002F000D10759F06991D601ED91FC910190F081FF
:10030000E02DC6010995892B79F7C501DF91CF91C1
:100310001F910F91FF90EF90DF90CF90BF90AF9023
:100320000895FC01538D448D252F30E0842F90E0FB
:10033000821B930B541710F0CF96089501970895E0
:10034000FC01918D828D981761F0A28DAE0FBF2FA9
:10035000B11D5D968C91928D9F5F9F73928F90E0FF
:1003600008958FEF9FEF0895FC01918D828D98176E
:1003700031F0828DE80FF11D858D90E008958FEFAB
:100380009FEF0895FC01918D228D892F90E0805C74
:100390009F4F821B91098F73992708958FE893E0EF
:1003A0000E94C20121E0892B09F420E0822F0895E8
:1003B00080E090E0892B29F00E94CE0181110C94FD
:1003C00000000895FC01A48DA80FB92FB11DA35AF8
:1003D000BF4F2C91848D90E001968F739927848F65
:1003E000A689B7892C93A089B1898C918370806488
:1003F0008C93938D848D981306C00288F389E02D29
:1004000080818F7D80830895EF92FF920F931F93D9
:10041000CF93DF93EC0181E0888F9B8D8C8D9813B7
:100420001AC0E889F989808185FF15C09FB7F894C3
:10043000EE89FF896083E889F9898081837080640F
:1004400080839FBF81E090E0DF91CF911F910F915A
:10045000FF90EF900895F62E0B8D10E00F5F1F4F69
:100460000F731127E02E8C8D8E110CC00FB607FC78
:10047000FACFE889F989808185FFF5CFCE010E9406
:10048000E201F1CFEB8DEC0FFD2FF11DE35AFF4F91
:10049000F0829FB7F8940B8FEA89FB898081806294
:1004A000CFCFCF93DF93EC01888D8823B9F0AA8951
:1004B000BB89E889F9898C9185FD03C0808186FD1F
:1004C0000DC00FB607FCF7CF8C9185FFF2CF80816E
:1004D00085FFEDCFCE010E94E201E9CFDF91CF9100
:1004E000089590E0FC01EC55FF4F2491FC01E0578A
:1004F000FF4F3491FC01E458FF4FE491EE23C9F023
:10050000222339F0233001F1A8F4213019F12230EF
:1005100029F1F0E0EE0FFF1FEE58FF4FA591B491C7
:100520008FB7F894EC91611126C030953E233C932F
:100530008FBF08952730A9F02830C9F0243049F73B
:10054000809180008F7D03C0809180008F778093A1
:100550008000DFCF84B58F7784BDDBCF84B58F7DFE
:10056000FBCF8091B0008F778093B000D2CF809185
:10057000B0008F7DF9CF3E2BDACFCF93DF9390E0A1
:10058000FC01E057FF4F249184589F4FFC01849158
:100590008823C9F090E0880F991FFC01E859FF4FAC
:1005A000A591B491FC01EE58FF4FC591D491611112
:1005B0000DC09FB7F8948C91209582238C938881ED
:1005C000282328839FBFDF91CF910895623051F493
:1005D0009FB7F8943C91822F809583238C93E88178
:1005E0002E2BEFCF8FB7F894EC912E2B2C938FBF3F
:1005F000EACF8E3008F08E508770806480937C0044
:1006000080917A00806480937A0080917A0086FDE0
:10061000FCCF809178009091790008953FB7F894CD
:100620008091F3029091F402A091F502B091F6024C
:1006300026B5A89B05C02F3F19F00196A11DB11D3D
:100640003FBFBA2FA92F982F8827BC01CD01620F79
:10065000711D811D911D42E0660F771F881F991F34
:100660004A95D1F708958F929F92AF92BF92CF9201
:10067000DF92EF92FF926B017C010E940E034B010F
:100680005C01C114D104E104F104B9F00E940E032D
:10069000681979098A099B09683E734081059105AB
:1006A00080F321E0C21AD108E108F10888EE880E33
:1006B00083E0981EA11CB11CE4CFFF90EF90DF9067
:1006C000CF90BF90AF909F908F9008955F926F9260
:1006D0007F928F929F92AF92BF92CF92DF92EF92D2
:1006E000FF920F931F93CF93DF935C016901DA01AF
:1006F0005C90232B19F4CC24CA94DC2C8A013A0197
:10070000660E771ED0E0C0E0F12CE12C87E0882E49
:10071000912CF50180819181D8016C910C2E01C042
:10072000660F0A94EAF765296F77DC01ED91FC9179
:100730000190F081E02D0995BFEFEB1AFB0AF8015B
:10074000608170E0C4018C1B9D0B02C0759567959C
:100750008A95E2F7562E2196C730D10558F1CE146E
:10076000DF0441F1D5018D919C91652D6F77DC01FE
:10077000ED91FC910190F081E02D0995BFEFEB1A0E
:10078000FB0A551C5524551C2797E6CFEC14FD0495
:1007900008F4BFCFDF91CF911F910F91FF90EF90A1
:1007A000DF90CF90BF90AF909F908F907F906F9091
:1007B0005F9008950F5F1F4F6016710639F72097FD
:1007C00049F3EC14FD0430F7F5018081918161E07B
:1007D00070E001C0660FCA95EAF761506521DC013F
:1007E000ED91FC910190F081E02DDF91CF911F916F
:1007F0000F91FF90EF90DF90CF90BF90AF909F90C0
:100800008F907F906F905F9009941F93CF93DF93A9
:1008100000D0CDB7DEB7182F7A83698380916C043E
:1008200090916D040097C9F0DC01ED91FC9101906D
:10083000F081E02D1031B8F461157044A0F4612FFF
:10084000606E099522E030E0AE014F5F5F4F62E0DD
:1008500070E08CE694E00E9466030F900F90DF91A9
:10086000CF911F91089560EF099580916C0490914C
:100870006D04DC01ED91FC910190F081E02D6FE6BB
:10088000099580916C0490916D04DC01ED91FC91CF
:100890000190F081E02D612F099522E030E0AE015A
:1008A0004F5F5F4F62E070E08CE694E00E94660369
:1008B00080916C0490916D04DC01ED91FC910190AC
:1008C000F081E02D67EF0995C8CFEF92FF920F936B
:1008D0001F93CF93DF93C82F80916C0490916D0488
:1008E0000097C9F17A018B01DC01ED91FC91019037
:1008F000F081E02D60EF099580916C0490916D047A
:10090000DC01ED91FC910190F081E02D6C2F0995B7
:10091000E7010E0D1F1DC017D10759F030E020E090
:10092000AE0161E070E08CE694E00E9466032196DF
:10093000F2CF80916C0490916D04DC01ED91FC91FB
:100940000190F081E02D67EFDF91CF911F910F9122
:10095000FF90EF900994DF91CF911F910F91FF903D
:10096000EF900895CF92DF92EF92FF920F931F9333
:10097000CF93DF93FC01E058FF4FE080EE2009F4B5
:100980005CC0EC01C05CDF4FA881B981109709F40D
:1009900054C0FC01EF57FF4FC080D180F601118198
:1009A0000081ED91FC9111970190F081E02D60EFB5
:1009B000CD01099588819981DC01ED91FC9101902F
:1009C000F081E02D69E7099588819981DC01ED913D
:1009D000FC910190F081E02D602F0995888199812B
:1009E000DC01ED91FC910190F081E02D612F0995E2
:1009F000F12C01E010E00F5F1F4FE016F10659F0F7
:100A000030E020E0A601400F511F61E070E0CE0110
:100A10000E946603F0CF88819981DC01ED91FC9101
:100A20000190F081E02D67EFDF91CF911F910F9141
:100A3000FF90EF90DF90CF900994DF91CF911F91BD
:100A40000F91FF90EF90DF90CF900895009711F0F5
:100A50000C94B20408952091CB02260F3327331F44
:100A600021323105ECF420916503FC0190E080E037
:100A7000243069F082E00895A091CB022191AC016D
:100A800047555D4FA40FB52FB11D2C9301968617C6
:100A900098F38091CB02680F6093CB0280E00895B9
:100AA00081E008951092650381E0809364031092C1
:100AB0003F0361E082E10E94710261E083E10E94F4
:100AC0007102E9EBF0E080818E7F808380818D7FF1
:100AD000808388E48093B80085E48093BC00089507
:100AE000CF93DF9391E09093A8028823B9F0C0914F
:100AF000B800D091BA008091BC008A7B8093BC0082
:100B000060E082E10E94710260E083E10E94710274
:100B10000E945205D093BA00C093B800DF91CF91E4
:100B200008958F929F92AF92BF92CF92DF92EF92F1
:100B3000FF920F931F93CF93DF93D0918E03D13207
:100B400008F0D7C0182FC0918D030E940E036B01CF
:100B50007C018091650381116BC082E08093650305
:100B6000109364038FEF8093630310926203D0931A
:100B70006103ADE6B3E0E1E4F3E080E0D81391C0B7
:100B80001092400380914003CC0FC82BC0934003C8
:100B900080913F03813009F088C010923F030E948A
:100BA0000E036B017C01809140038093BB00809118
:100BB000670390916803A0916903B0916A03892B40
:100BC0008A2B8B2BA1F00E940E03009167031091DA
:100BD00068032091690330916A036C197D098E09BD
:100BE0009F09061717072807390708F442C08091A4
:100BF000BC0083FDD8CF85EC8093BC000E940E031F
:100C00006B017C0180916503823009F450C08091B2
:100C100063038F3F09F46FC080916303803209F44E
:100C20006CC080916303803309F469C084E026C0FE
:100C30008091670390916803A0916903B0916A0362
:100C4000892B8A2B8B2B09F484CF0E940E03809072
:100C5000670390906803A0906903B0906A036C19D1
:100C60007D098E099F0986169706A806B90608F021
:100C700070CF809166030E94700585E010926C032E
:100C800010928E0310926B03DF91CF911F910F9101
:100C9000FF90EF90DF90CF90BF90AF909F908F909C
:100CA00008959D9191938F5F69CF85EEA5CF809137
:100CB000670390916803A0916903B0916A03892B3F
:100CC0008A2B8B2B09F49ECF0E940E0300916703A1
:100CD000109168032091690330916A036C197D09B2
:100CE0008E099F09061717072807390708F08ACFCA
:100CF000C0CF81E0C3CF80E0C1CF82E0BFCF83E02F
:100D0000BDCF089508950895E091A7028091A602AD
:100D1000E81730F4F0E0EA57FD4F808190E0089545
:100D20008FEF9FEF08959091A7028091A6022FEF79
:100D30003FEF981748F4E92FF0E0EA57FD4F208184
:100D400030E09F5F9093A702C90108958091A602A9
:100D50009091A702891B990B0895CF92DF92EF9291
:100D6000FF920F931F93CF93DF937C01CB018A01F6
:100D700020916B03222389F0EB016B01C40ED51E79
:100D8000CC15DD0569F06991D701ED91FC910190D9
:100D9000F081E02DC7010995F3CF642F0E942B0548
:100DA000C801DF91CF911F910F91FF90EF90DF90DD
:100DB000CF900895CF93DF931F92CDB7DEB76983AD
:100DC00020916B032223F9F020918E03203258F0FA
:100DD00021E030E0FC013383228390E080E00F903B
:100DE000DF91CF91089580916C03E82FF0E0E359F3
:100DF000FC4F998190838F5F80936C0380938E0367
:100E000081E090E0ECCF61E0CE0101960E942B05DD
:100E1000F7CF90E080E00895DF92EF92FF920F937A
:100E20001F93CF93DF93EC01D62E7A01890188813D
:100E30008C3008F067C061E08D2D0E94BD02888172
:100E4000282F30E0F901EE0FFF1FE20FF31FE250F1
:100E5000FB4F9D2D9F736081607C692B608320E236
:100E600032E02E193F0937FF02C02D5F3F4F359505
:100E7000279535952795298320E639E0201B310BEE
:100E800037FF02C02D5F3F4F359527953595279544
:100E90002A832CE0622F0E94D417829FB001112474
:100EA00030E020E0AB01420F531FFA01EE0FFF1FAD
:100EB000E40FF51FE250FB4F908196FD16C02F5FA7
:100EC0003F4F2C30310571F781110FC01092800017
:100ED00082E0809381001092850010928400B19A84
:100EE00080916F00826080936F00E8818E2F90E088
:100EF000FC01EE0FFF1FE80FF91FE250FB4F80814E
:100F0000806480838881DF91CF911F910F91FF9042
:100F1000EF90DF900895CF938830B0F421E030E077
:100F2000082E02C0220F331F0A94E2F740913903C2
:100F300050913A03672B51F42095309524233523A3
:100F400030933A0320933903CF910895242B352B06
:100F500030933A0320933903909184029111F4CF96
:100F6000C82F0E94F902BC018C2FCF910C9405046C
:100F70005F926F927F928F929F92AF92BF92CF9229
:100F8000DF92EF92FF920F931F93CF93DF93833003
:100F900008F061C0D1E0D80FDD0FDD0FDD0F5D2E51
:100FA000D73110F046E1542EC62F082FD8508D2E81
:100FB000912CC401880F991F9C01245D3B4F59015E
:100FC000D12CC12C10E077247394D515C8F58EEF81
:100FD0008D0F8231F8F4F601E80DF91DE155FB4F54
:100FE00090819230B8F48C2F87216624639481110C
:100FF00001C0612C7601EE0CFF1C913089F4172999
:1010000039E9E30EF11CF501EE0DFF1D862D90E090
:1010100091838083770CDF5F8FEFC81AD80AD5CF12
:10102000882371F3F701E756FF4FEA0DFB1D80811E
:101030009181019729F362E08D2F0E94BD02E0CFDC
:10104000011119C0F8948BB16C2F68276C7F612354
:1010500068276BB97894DF91CF911F910F91FF9022
:10106000EF90DF90CF90BF90AF909F908F907F9048
:101070006F905F9008950130D1F4C123F89495B139
:10108000812F8F73809589239C2F9F73892B85B91E
:1010900088B1612F62956695669563706095682347
:1010A000C295C695C695C370C62BC8B9D3CF1F705D
:1010B000F89498B1812F880F880F80958923C123D8
:1010C000CC0FCC0FC82BF1CF8F929F92AF92BF92D3
:1010D000CF92DF92EF92FF920F931F93CF93DF9304
:1010E000EB01863108F098C0082F10E0F801E155B7
:1010F000FB4F9081933009F49CC0943009F08CC070
:101100008250823108F081C0F801E659FD4FC0805D
:10111000D12C7601EE0CFF1C4B01603282E0780787
:101120000CF03EC0F701EC0DFD1DED5DFA4F818125
:10113000A8E88A2E912C881A910887FD9394880C30
:10114000991C880C991C092C000CAA08BB088281E8
:1011500028E532E0281B310987FD3395220F331F24
:10116000220F331F032E000C440B550B281939098D
:101170004A095B09DB01653B710514F0A4EBB0E0A3
:10118000B7FF02C0B0E0A0E00E949B1724EB30E064
:1011900040E050E00E947117820E931EA41EB51EFF
:1011A000F701EC0DFD1DED5DFA4F20812C3068F547
:1011B000318188E890E0831B910937FD9395880F72
:1011C000991F880F991F881699067CF0328188E54F
:1011D00092E0831B910937FD9395880F991F880F23
:1011E000991F881699060CF4C4010297880F991F5D
:1011F0004FB7F89430E0F901EE0FFF1FE20FF31F35
:10120000E250FB4F928381834FBF000F111FF80103
:10121000EB53FB4FD183C083DF91CF911F910F918F
:10122000FF90EF90DF90CF90BF90AF909F908F9006
:1012300008957B01D82F833041F08BEF800F8230EF
:1012400020F087EF800F833058F461E08D2F0E94EB
:10125000BD02E114F10461F460E08D2F0E9471027F
:10126000000F111FF801EB53FB4FF182E082D4CF46
:101270008FEFE816F10411F461E0EFCFF801EC55BF
:10128000FF4FE491E33021F148F4E130B9F0E2306E
:10129000D1F080E8E816F1047CF7DECFE73011F1F9
:1012A000E83041F1E430A9F78091800080628093BA
:1012B0008000F0928B00E0928A00D2CF84B58068E3
:1012C00084BDE7BCCDCF84B5806284BDE8BCC8CF07
:1012D00080918000806880938000F0928900E09285
:1012E0008800BECF8091B00080688093B000E0920B
:1012F000B300B6CF8091B00080628093B000E092DE
:10130000B400AECF9EEF980F923180F4E82FF0E05A
:10131000DF01A155BB4F9C91913041F4EE0FFF1FAF
:10132000EB53FB4F608371830C9471020895FF921D
:101330000F931F93CF93DF9300D0CDB7DEB7082F65
:1013400010E0F801E95FFC4F9081F62EF922005879
:101350001D4F411104C0F80190819F1511F12F2DEF
:1013600030E03A832983A0916C04B0916D0410970A
:10137000B1F0682F6F706069ED91FC911197019049
:10138000F081E02DCD01099522E030E0AE014F5F04
:101390005F4F62E070E08CE694E00E946603F80123
:1013A000F0820F900F90DF91CF911F910F91FF90DE
:1013B0000895833040F5282F30E0F901E65FFC4FB7
:1013C0006083672B01F1295F3C4FF9016081811136
:1013D00006C099B19C7F692341E00C949709813044
:1013E00049F493B126B19F73F0E42F9F900111242B
:1013F000922BF1CF26B130E035952795359527957D
:101400002F706223E9CF0895A82FB0E0A659BD4FF1
:101410009C91292F30E0F901EE0FFF1FE20FF31F1F
:10142000ED5DFA4FE0812E2F30E0F901EE0FFF1F46
:10143000E20FF31FE250FB4F80818F7B808380910E
:101440006802981308C0992319F09150909368028C
:101450008FEF8C9308958823D9F3E0916902EF5FB1
:10146000E0936902F0E0E75EFD4F9083F1CFFC016D
:1014700001900020E9F73197BF01681B790BAC019F
:1014800081E70C946504CF93DF93DB0190916802B0
:101490009C3078F530916902682F70E0FB01E659C5
:1014A000FD4F3323E1F0C32FD0E0C75EDD4F8881CD
:1014B0008083315030936902808123E0829FC00194
:1014C00011248D5D9A4F1A161B0674F41416150616
:1014D0005CF49A01AD01DF91CF910C940C079083DD
:1014E0009F5F90936802E8CF20E639E040E252E047
:1014F000F2CF8DE291E0DF91CF910C94370A85ED28
:101500008093BC008091670390916803A091690368
:10151000B0916A030796A11DB11D23E0B695A7956A
:10152000979587952A95D1F72091BC0024FD03C09B
:10153000109265030895409167035091680360918C
:10154000690370916A03452B462B472B69F300977B
:10155000A105B10541F025E32A95F1F700000197B7
:10156000A109B109E1CF809166030C9470059F92A7
:10157000AF92BF92CF92DF92EF92FF920F931F93A1
:10158000CF93DF93C82ED12CE601C45DDB4FFE0163
:10159000ED57FF4F90819F3709F49FC0963061F45B
:1015A00090918302992341F06630710529F01092E1
:1015B00083029FEF909300017B01182F0EEF080F1D
:1015C000023108F564307105F1F0F601E659FD4F7E
:1015D00080818C30C0F490E0FC01EE0FFF1FE80F1B
:1015E000F91FED5DFA4FE0818E2F90E0FC01EE0FC8
:1015F000FF1FE80FF91FE250FB4F808186FF03C0F9
:10160000812F0E94040A52EF952E910E87E08915D2
:1016100058F061E070E032E0E316F10411F070E0A0
:1016200060E0892D0E948B070231C8F4E12FE69516
:10163000E695E695F0E0E95FFC4F2081312F3770A9
:1016400081E090E001C0880F3A95EAF7E114F104D7
:1016500021F03BE0E316F10401F5822B8083560173
:10166000AA0CBB1CF501EB53FB4F118210828CE0DE
:10167000E816F10408F0CBC0F701EF5BF44F0C94CF
:10168000E017610B8E0B500BA50BC40B070CFB0B6B
:10169000070C070C070C6D0B790B80958223DECFAE
:1016A00037E03915D0F0023120F460E0812F0E943C
:1016B000BD02CD57DF4F88818F3779F082E0888374
:1016C0000CC0023150F460E0812F0E94BD02CD5762
:1016D000DF4F88818F3709F01882DF91CF911F91FA
:1016E0000F91FF90EF90DF90CF90BF90AF909F90C1
:1016F0000895023190F762E0812F0E94BD02CD571C
:10170000DF4F88818F3711F08BE08883F501EB5331
:10171000FB4F81E090E091838083DFCF0231E8F6D8
:10172000FE01ED57FF4F8081833021F460E0812F6F
:101730000E94710261E0812F0E94BD02CD57DF4FF0
:1017400088818F3751F281E0BACF133049F08BEFA7
:10175000810F823028F087EF810F833008F0BDCFF2
:1017600061E0812F0E94BD0261E0812F0E94BD02D5
:1017700060E0812F0E947102CD57DF4F88818F3743
:1017800009F4ABCF83E09BCF023108F0A6CFCD5751
:10179000DF4F88818F3711F084E08883F601E659A6
:1017A000FD4F80818F3FA9F090E0FC01EE0FFF1FFD
:1017B000E80FF91FED5DFA4FE0818E2F90E0FC01FC
:1017C000EE0FFF1FE80FF91FE250FB4F808186FDEF
:1017D00084CF4FEF5FEF6FEF7FEF812FDF91CF91DE
:1017E0001F910F91FF90EF90DF90CF90BF90AF903F
:1017F0009F900C94430A1251123008F06ECFCD57CF
:10180000DF4F88818F3709F468CF86E058CF81E4B5
:1018100091E0DF91CF911F910F91FF90EF90DF90BA
:10182000CF90BF90AF909F900C94370A0F931F9367
:10183000CF93DF9381E08093840280918302882399
:1018400029F0109283028FEF8093000110920A0317
:10185000109207031092800210920B03109208035B
:101860001092810210920C031092090310928202CE
:101870000AE612E0C0E0DFEF82EF8C0F62E070E07A
:10188000883030F08EEF8C0F823128F461E070E008
:101890008C2F0E94B70AF801D1938F01CF5FC63118
:1018A00059F710923A03109239031092690210927C
:1018B000680210928402DF91CF911F910F910895D9
:1018C0004F925F926F927F928F929F92AF92BF9250
:1018D000DF92EF92FF920F931F93CF93DF93D82E57
:1018E0008B01D42FC22F6F3F760709F490C081E09F
:1018F00080936B03D0928D0310926C0310928E0331
:1019000082EF94E00E94DA068C2F0E94910580916C
:101910006602909167028230910538F0880F991F16
:10192000880F991F05970197F1F70E940E034B014D
:101930005C018091650381116CC0CD2FD13208F01C
:10194000C0E281E080936503809364039FEF9093EE
:101950006303109262039C0F909361038093400392
:10196000909140038D2D880F892B809340038091A7
:101970003F03813009F09EC010923F030E940E0386
:101980004B015C01809140038093BB008091670311
:1019900090916803A0916903B0916A03892B8A2B07
:1019A0008B2BA1F00E940E034090670350906803B8
:1019B0006090690370906A03681979098A099B0924
:1019C000461657066806790608F444C08091BC00A4
:1019D00083FDD8CF85EC8093BC000E940E034B01A1
:1019E0005C0180916503813009F466C080916203D7
:1019F0008C1710F4C0916203A1E4B3E0E6E8F2E0D2
:101A000080E08C1761F19D9191938F5FFACF00E098
:101A10008CCF8091670390916803A0916903B09186
:101A20006A03892B8A2B8B2B09F483CF0E940E0328
:101A300040906703509068036090690370906A0358
:101A4000681979098A099B094616570668067906B6
:101A500008F06FCF809166030E947005C0E010927D
:101A6000A702C093A602ED2EF12C8C2F90E0E81671
:101A7000F9060CF043C082E591E00E94370AD0924B
:101A800026020093270206E212E0C8018652924025
:101A90008E159F05D4F50F5F1F4F9091A602809180
:101AA000A702981791F182EF94E00E949306F80143
:101AB0008183EBCF85EE8FCF809167039091680390
:101AC000A0916903B0916A03892B8A2B8B2B09F4AF
:101AD00088CF0E940E034090670350906803609087
:101AE000690370906A03681979098A099B09461687
:101AF00057066806790608F074CFACCF8E159F059F
:101B00000CF0BDCF8FE691E0B8CFDE5F6D2F70E0B7
:101B100046E252E087E7DF91CF911F910F91FF904E
:101B2000EF90DF90BF90AF909F908F907F906F90DD
:101B30005F904F900C946504EF92FF920F931F9368
:101B4000CF93DF938956823108F033C0EA01162F14
:101B5000E82FF0E0E255F24F0C94E017F40FD90DA6
:101B60005B0FD90DB30FD90D390FDD0ED90DD90D7E
:101B7000D90DD90DD90DC00DD90DA10ED90D230F39
:101B8000998195FF0AC08BE891E0DF91CF911F9179
:101B90000F91FF90EF900C94370A888131E096FB0B
:101BA000222720F9232798719830D1F148F49923FE
:101BB000A9F0DF91CF911F910F91FF90EF900895C1
:101BC000903109F44CC09831A1F720910001121610
:101BD0000CF472C08FEF80930001EBCF30936B0356
:101BE00080938D0310926C0310928E0302E0011714
:101BF00078F4FE01E00FF11D618167956627679516
:101C00008081680F82EF94E00E94DA060E5FEFCFCA
:101C100081E00E94910583E191E00197F1F7C9CF3E
:101C20009A814B816630A1F430E8439FB0011124C2
:101C3000690F711D4D814795442747959C81490F38
:101C4000DF91CF911F910F91FF90EF900C94600C5A
:101C5000479544274795490F6FEF7FEFF1CFE0910C
:101C60000001E7301CF08BEA91E08FCF3A819B8135
:101C70006630D9F460E8969FA0011124430F511DEE
:101C80009D819795992797953C81930FEF5FE093FE
:101C9000000135E0E302F0011124EF5EFC4F808388
:101CA000528341839383248384CF97959927979573
:101CB000930F4FEF5FEFEACF90E0622F022E000C00
:101CC000770B35E0492F50E06417750764F0349FB7
:101CD000F001359FF00D1124EF5EFC4F4081481755
:101CE00019F09F5FEFCF90E085E0492F50E0641737
:101CF00075071CF19830F8F4FA0131968E9FD001E7
:101D00008F9FB00D1124AF5EBC4F3C91849FF001BA
:101D1000859FF00D1124EF5EFC4F308311964D919D
:101D20005C9112975283418313963C9113973383AE
:101D300014963C9134839F5FD8CF215020930001AB
:101D400038CF623078F0898160E8869F9001112455
:101D50008881820F932F911D009721F09093670245
:101D60008093660280918302811123CFC0E08EEEC2
:101D70008C0F823028F466E070E08C2F0E94B70A46
:101D8000CF5FC631A1F781E0809383021092A70252
:101D90001092A60210926C0310928E030E945205BC
:101DA00081E896E09093CA028093C90282E896E0A7
:101DB0009093CE028093CD02FCCE653008F4F9CE2C
:101DC00018818EEF810F823108F0F3CE0981EA800D
:101DD000FB80CC81E12FF0E0E659FD4F80818C3013
:101DE000C0F490E0FC01EE0FFF1FE80FF91FED5D5E
:101DF000FA4FE0818E2F90E0FC01EE0FFF1FE80FFD
:101E0000F91FE250FB4F808186FF03C0812F0E94A3
:101E1000040A80E8C89FA00111244F0D511D90E8CD
:101E2000E99EB0011124600F711D812F0E94430AA9
:101E300064E070E0812FDF91CF911F910F91FF90AF
:101E4000EF900C94B70A623008F4B3CE8981E0E8D1
:101E50008E9F900111248881820F932F911D0097EE
:101E600029F09093020180930101A3CE81E090E0DC
:101E7000F8CF623008F49DCE698170E0123091F0A5
:101E80008A81F0E88F9FC0011124682B792B1330D1
:101E900049F08B8190E090E4899F902D8827112450
:101EA000682B792B8881DF91CF911F910F91FF9043
:101EB000EF900C94640880EF0E9401018CE60E9470
:101EC0000101CEEF84EF8C0F883020F582E00E9474
:101ED00001018AE00E9401018DEF8C0F8230E0F059
:101EE00089EF8C0F8330F0F417C0C23158F780E0CF
:101EF0000E94010181E00E9401018BE00E9401012A
:101F000081E00E94010181E00E94010181E00E94C4
:101F10000101D8CFC13001F783E00E94010188E0C0
:101F20000E940101C23130F484E00E9401018EE080
:101F30000E94010180EF8C0F823030F486E00E9415
:101F4000010181E00E9401018FE70E940101CF5F42
:101F5000C43159F687EFDF91CF911F910F91FF9018
:101F6000EF900C940101662309F423CEC88180EF21
:101F70000E9401018EE60E9401018C2F0E94010146
:101F8000C63140F7D0E0FE01E155FB4F80810E9451
:101F90000101CC0FDD1F8E010B531B4FF801808117
:101FA0008F770E940101F801808191819C01207846
:101FB000232B39F0880F892F881F990B8F770E9468
:101FC0000101CB53DB4F888199819C012227307C12
:101FD000232B09F4BFCF990F880B990F982F881FD7
:101FE0008F770E940101B6CF80EF0E9401018AE63F
:101FF0000E940101C2EF8FE7C83008F48C2F0E94C5
:102000000101CF5FC830B9F7A5CF1F920F920FB66D
:102010000F9211242F933F934F935F936F937F936E
:102020008F939F93AF93BF93EF93FF938FE893E0CA
:102030000E94E201FF91EF91BF91AF919F918F912B
:102040007F916F915F914F913F912F910F900FBEB4
:102050000F901F9018951F920F920FB60F92112498
:102060002F938F939F93EF93FF93E0919F03F091B2
:10207000A0038081E091A503F091A60382FD1BC01F
:1020800090818091A8038F5F8F732091A90382179D
:1020900041F0E091A803F0E0E157FC4F958F809369
:1020A000A803FF91EF919F918F912F910F900FBEF9
:1020B0000F901F9018958081F4CF1F920F920FB64A
:1020C0000F9211242F933F938F939F93AF93BF93BE
:1020D00080910D0390910E03A0910F03B091100316
:1020E0003091F20223E0230F2D3758F50196A11D00
:1020F000B11D2093F20280930D0390930E03A093E1
:102100000F03B09310038091F3029091F402A09119
:10211000F502B091F6020196A11DB11D8093F30264
:102120009093F402A093F502B093F602BF91AF91A1
:102130009F918F913F912F910F900FBE0F901F9005
:10214000189526E8230F0296A11DB11DD2CF1F922C
:102150000F920FB60F9211240F900FBE0F901F9089
:1021600018951F920F920FB60F9211242F933F9341
:102170004F935F936F937F938F939F93AF93BF938F
:10218000EF93FF938091B900887F803609F44AC0AD
:10219000F0F5883209F4A7C018F5803109F49BC026
:1021A000B8F4882309F4F9C0883009F494C0FF9189
:1021B000EF91BF91AF919F918F917F916F915F91BF
:1021C0004F913F912F910F900FBE0F901F90189538
:1021D000883109F488C0803251F78093630314C0BA
:1021E000803409F49DC040F48033B9F38833F9F6A4
:1021F0008093630385ECB0C0803509F485C08835D1
:1022000009F496C0883499F60E947F0AD0CF8839A5
:1022100009F48CC038F5883729F050F4883611F06D
:10222000803729F683E0809365031092EF0257C050
:10223000883809F47BC0803919F0803809F0B7CFAD
:102240008091EF02803208F071C0E091EF0281E0EE
:102250008E0F8093EF028091BB00F0E0E153FD4FC1
:1022600080833DC0803B39F0E0F4803A09F479C0C6
:10227000883A09F09CCF84E0809365031092CC02E9
:102280001092CB02E091C902F091CA0209958091A7
:10229000CB0281110FC081E08093CB021092A90282
:1022A00009C0803C09F4A6CF883C09F4A3CF883B41
:1022B00009F07DCFE091CC0281E08E0F8093CC02BB
:1022C000F0E0E755FD4F80818093BB009091CC02F8
:1022D0008091CB0229C0809140038093BB0085ECA4
:1022E0008093BC0064CF9091620380916103981742
:1022F00058F5E091620381E08E0F80936203F0E075
:10230000EF5BFC4F8081E9CFE091620381E08E0FAB
:10231000809362038091BB00F0E0EF5BFC4F808311
:1023200090916203809161039817C8F285E8D8CF35
:10233000E091620381E08E0F809362038091BB0085
:10234000F0E0EF5BFC4F80838091640381115CCFF0
:1023500081E080933F0384EA8093BC001092650380
:1023600026CF85EC8093BC00109265038091EF022C
:10237000803230F4E091EF02F0E0E153FD4F108243
:102380006091EF0270E0E091CD02F091CE028FEC0F
:1023900092E009951092EF020ACF1092630334CFB6
:1023A0001F920F920FB60F9211242F933F934F93CA
:1023B0005F936F937F938F939F93AF93BF93CF93CD
:1023C000DF93EF93FF9380918502C0912205D0E0C7
:1023D00087FF24C0109285001092840080918502AE
:1023E0008F5F8093850280918502082E000C990BE7
:1023F0008C179D0724F4809185028C30C4F1809164
:10240000840090918500049680349C4908F47AC039
:102410008091840090918500049676C08091850219
:10242000082E000C990B8C179D07C4F6E0918502CD
:102430008E2FEE0F990BFC01EE0FFF1FE80FF91F17
:10244000E250FB4F808186FFC9CFE09185028E2F3D
:10245000EE0F990BFC01EE0FFF1FE80FF91FE25082
:10246000FB4F808160E08F730E947102B7CF209193
:10247000840030918500E09185028E2FEE0F990B3C
:10248000FC01EE0FFF1FE80FF91FE250FB4F8181A7
:102490009281820F931F9093890080938800E0912E
:1024A00085028E2FEE0F990BFC01EE0FFF1FE80F38
:1024B000F91FE250FB4F808186FF11C0E091850239
:1024C0008E2FEE0F990BFC01EE0FFF1FE80FF91F87
:1024D000E250FB4F808161E08F730E947102FF9197
:1024E000EF91DF91CF91BF91AF919F918F917F91AC
:1024F0006F915F914F913F912F910F900FBE0F9071
:102500001F90189580E49CE990938900809388003F
:102510008FEF80938502E3CF109292031092910384
:1025200048EE53E060E070E04093930350939403CF
:1025300060939503709396038DE091E090939003E0
:1025400080938F0385EC90E090939C0380939B0392
:1025500084EC90E090939E0380939D0380EC90E048
:102560009093A00380939F0381EC90E09093A2034B
:102570008093A10382EC90E09093A4038093A30343
:1025800086EC90E09093A6038093A5031092A80395
:102590001092A9031092AA031092AB038CE294E06C
:1025A00010926D0410926C049093700480936F04E9
:1025B00020E430E03093720420937104109273048D
:1025C000109274041092760410927504109277049D
:1025D000109279041092780410927B0410927A047D
:1025E00010927D0410927C0410927F0410927E045D
:1025F000109281041092800410928304109282043D
:10260000109285041092840410928B0410928A0414
:1026100010928D0410928C0410928F0410928E04EC
:10262000109291041092900410929F0410929E04B4
:1026300010926E041092AC041092AE041092AD048D
:102640001092F10427E830E0309393042093920431
:1026500021E930E030939504209394042BE930E095
:10266000309397042093960425EA30E03093990440
:10267000209398042FEA30E030939B0420939A042F
:1026800029EB30E030939D0420939C0423EC30E050
:102690003093A1042093A00424EC30E03093A304F1
:1026A0002093A20426E235E03093A5042093A404ED
:1026B00090938704809386042DE531E03093A7043E
:1026C0002093A60490938904809388048FEC90E073
:1026D0009093A9048093A8041092F5041092F40436
:1026E0004093F6045093F7046093F8047093F90450
:1026F0008FE191E09093F3048093F204E3E2F5E03C
:102700002FEF48EB5BE0809122058C30B8F491E02C
:10271000980F90932205808390E0DC01AA0FBB1FE5
:10272000A80FB91FA250BB4F12965C934E931197FE
:10273000339685E0E734F80731F708952083F8CF22
:10274000789484B5826084BD84B5816084BD85B58C
:10275000826085BD85B5816085BD80916E00816098
:1027600080936E001092810080918100826080933E
:102770008100809181008160809381008091800040
:102780008160809380008091B10084608093B1006B
:102790008091B00081608093B00080917A00846065
:1027A00080937A0080917A00826080937A00809191
:1027B0007A00816080937A0080917A0080688093AB
:1027C0007A001092C10085E18093AC048091AD0441
:1027D0009091AE040E948218C091AC04D0E0CE016A
:1027E00001960E94E6179093AE048093AD04FC011D
:1027F000EC0FFD1F108212E0DC011C9325E0119606
:102800002C93AE014250510966E072E002960E949C
:102810000B1984E698E0909302038093010388EB00
:1028200097E0909300038093FF028BE897E09093EA
:10283000FE028093FD0289ED99E09093FC02809363
:10284000FB0287EB9AE09093FA028093F90282E808
:1028500099E09093F8028093F7028CE99DE09093C1
:1028600004038093030386E19CE090930603809326
:102870000503E0919F03F091A0031083E0919F0373
:10288000F091A0031082E0919B03F0919C031082D1
:10289000E0919D03F0919E0380E180831092A70355
:1028A000E091A303F091A40386E08083E091A1036B
:1028B000F091A203808180618083E091A103F09177
:1028C000A203808188608083E091A103F091A2033C
:1028D000808180688083E091A103F091A2038081D0
:1028E0008F7D80838091F10481114FC061E08DE084
:1028F0000E94BD0262ED70E080E090E00E94330330
:1029000061E08DE00E94710268E270E080E090E09A
:102910000E94330360E08DE00E94710262ED70E07E
:1029200080E090E00E94330361E08DE00E9471023C
:1029300068E270E080E090E00E94330360E08DE0A8
:102940000E9471026AEF70E080E090E00E94330321
:10295000C5E062ED70E080E090E00E94330361E04A
:102960008DE00E94710268E270E080E090E00E94D9
:10297000330360E08DE00E947102C15051F76DE7B2
:1029800070E080E090E00E9433038FE893E0909342
:10299000AB048093AA0490936D0480936C048CE63E
:1029A00094E00E94D7008CE294E00E94B2040E945E
:1029B000160C25E0D22EC0E0D0E0CC24C39402E077
:1029C00010E0EE24E394F12C80910A03882349F06F
:1029D00069B18091070368236C7F40E080E00E942A
:1029E000970980910B03882379F063B186B16F73E7
:1029F000B0E48B9FC0011124682B809108036823E9
:102A000040E081E00E94970980910C03882359F0EF
:102A100066B1809109038F7066956695682340E0E2
:102A200082E00E9497098091AA049091AB04DC0196
:102A3000ED91FC910084F185E02D0995892B09F435
:102A4000CEC18091AA049091AB04DC01ED91FC9180
:102A50000284F385E02D09959C018F3F980719F3B7
:102A6000982F80917704882309F492C0973F09F04A
:102A70007EC010927704A0916F04B09170046C91A5
:102A80006137C1F1693709F05CC0E091A404F091AD
:102A9000A504309741F280917804909179048330B5
:102AA000910560F430E020E050E040E070E060E04C
:102AB00080918604909187040995B5CFBD016D5F23
:102AC0007F4F03970E943E01BC016D5F7F4F80E006
:102AD0000E940E01E0916F04F09170049F012D5F40
:102AE0003F4F428150E0618170E0E091A404F09199
:102AF000A504DECF8091A0049091A104892B09F454
:102B000092CFBD016F5F7F4F8091780490917904DF
:102B100001970E943E01BC016F5F7F4F80E00E94E1
:102B20000E0160916F04709170046F5F7F4FE091B0
:102B3000A004F091A10480918C0490918D040995DA
:102B400072CFE091A204F091A304309709F46BCF07
:102B50009D012F5F3F4F409178045091790441507F
:102B6000510980918E0490918F0409955CCF6091FA
:102B7000780470917904822F0E940E01809178046C
:102B800090917904019690937904809378044BCFC7
:102B900060917504709176046115710509F4B1C0F6
:102BA00027FDAFC06150710970937604609375047E
:102BB000822F0E940E018091750490917604892BDA
:102BC00009F031CF80917304882309F42CCF803D24
:102BD00009F483C040F4803949F1803C09F469C0AC
:102BE0001092730420CF843FE1F1853F09F44DC07A
:102BF000803EB1F7E0919204F0919304309781F315
:102C0000A0916F04B09170044C9120E8429FC001E4
:102C1000112411964C91480F592F511D6091740445
:102C200080917A0490917B040995DACFE091940425
:102C3000F09195043097A1F2A0916F04B0917004C7
:102C40004C9120E8429FC001112411964C91480FED
:102C5000592F511D6091740480917C0490917D04E2
:102C6000E3CFE0919A04F0919B04309709F4B8CF38
:102C7000A0916F04B09170044C9150E011966C914A
:102C80008091820490918304CFCFE0919C04F091D5
:102C90009D04309709F4A4CFA0916F04B091700403
:102CA0004C9150E011966C91809184049091850430
:102CB000BBCFE0919604F0919704309709F490CF40
:102CC000A0916F04B09170044C9150E06091740435
:102CD00080917E0490917F04A7CFE0919804F091B9
:102CE0009904309709F47CCFA0916F04B0917004DF
:102CF0004C9150E060917404809180049091810423
:102D000093CF903F30F4822F8F7080937404922F72
:102D1000907F903FF1F190F4903CB1F150F49039F4
:102D200009F081CE10937604009375049093730498
:102D30007ACE903D49F1903EA9F375CE993F09F4C2
:102D400042C028F48CE0890F823060F36CCE9F3F44
:102D500009F069CE109276041092750410927304F3
:102D60001092740490E080E020917104309172041C
:102D700082179307A8F4E0916F04F0917004E80FB4
:102D8000F91F10820196F0CFF0927604E09275045C
:102D9000CDCFC0927704109279041092780443CE7C
:102DA000109277041092790410927804E091A804AC
:102DB000F091A9048091900490919104309709F4C6
:102DC00032CE099530CEE091A604F091A704309759
:102DD00009F429CE8091880490918904F2CF8FB7AD
:102DE000F89480900D0390900E03A0900F03B09084
:102DF00010038FBF80913B0390913C03A0913D0352
:102E0000B0913E03409101015091020170E060E0F9
:102E1000881A990AAA0ABB0A481559056A057B054A
:102E200008F054C0840F951FA61FB71F80933B0363
:102E300090933C03A0933D03B0933E038CE2882E15
:102E400084E0982E92EFB92E87E08B15C8F0F4013C
:102E5000ED57FF4F8081823099F480913903909132
:102E60003A030B2C02C0959587950A94E2F780FFF0
:102E700007C08B2D0E94F902BC018B2D0E94050416
:102E8000B394AFEF8A1A9A0AB8E0BB12DDCF8091F3
:102E9000000187FD1BC0B12C2B2D30E0809100017B
:102EA000082E000C990B8217930784F0D29EF00134
:102EB000D39EF00D1124EF5EFC4F6181728124815D
:102EC000438180810E94600CB394E6CF209709F47F
:102ED0007BCD0E94CE01882309F476CD0E940000AC
:102EE00073CD052E97FB1EF400940E94881757FDA2
:102EF00007D00E94A31707FC03D04EF40C94881748
:102F000050954095309521953F4F4F4F5F4F089515
:102F100090958095709561957F4F8F4F9F4F089545
:102F20000E94C517A59F900DB49F900DA49F800D82
:102F3000911D11240895B7FF0C9490170E949017CB
:102F4000821B930B0895A1E21A2EAA1BBB1BFD0145
:102F50000DC0AA1FBB1FEE1FFF1FA217B307E40778
:102F6000F50720F0A21BB30BE40BF50B661F771FD0
:102F7000881F991F1A9469F76095709580959095B0
:102F80009B01AC01BD01CF010895A29FB001B39F89
:102F9000C001A39F700D811D1124911DB29F700D62
:102FA000811D1124911D0895991B79E004C0991F7A
:102FB000961708F0961B881F7A95C9F78095089593
:102FC000EE0FFF1F0590F491E02D09940F931F93CE
:102FD000CF93DF938230910510F482E090E0E0918E
:102FE0004905F0914A0530E020E0B0E0A0E03097DC
:102FF00099F42115310509F44AC0281B390B2430F6
:103000003105D8F58A819B816115710589F1FB0134
:1030100093838283FE0111C040815181028113811B
:1030200048175907E0F04817590799F4109761F0CD
:1030300012960C93129713961C933296CF01DF9140
:10304000CF911F910F9108950093490510934A0560
:10305000F4CF2115310551F04217530738F0A9017B
:10306000DB019A01BD01DF01F801C1CFEF01F9CF0A
:1030700090934A0580934905CDCFFE01E20FF31FDF
:10308000819391932250310939832883D7CF20919E
:10309000470530914805232B41F4209105013091DB
:1030A0000601309348052093470520910301309194
:1030B00004012115310541F42DB73EB740910701B8
:1030C00050910801241B350BE0914705F09148050C
:1030D000E217F307A0F42E1B3F0B2817390778F0EF
:1030E000AC014E5F5F4F2417350748F04E0F5F1F4E
:1030F0005093480540934705819391939FCFF0E00B
:10310000E0E09CCFCF93DF930097E9F0FC0132978A
:1031100013821282A0914905B0914A05ED0130E079
:1031200020E01097A1F420813181820F931F20911C
:103130004705309148052817390709F061C0F09319
:103140004805E0934705DF91CF910895EA01CE1736
:10315000DF07E8F54A815B819E0141155105B1F712
:10316000E901FB83EA8349915991C40FD51FEC17FC
:10317000FD0761F4808191810296840F951FE9011A
:1031800099838883828193819B838A83F0E0E0E046
:1031900012968D919C9113970097B9F52D913C91C2
:1031A0001197CD010296820F931F20914705309110
:1031B00048052817390739F6309751F510924A0516
:1031C00010924905B0934805A0934705BCCFD3831F
:1031D000C28340815181840F951FC817D90761F4BC
:1031E0004E5F5F4F88819981480F591F51834083FB
:1031F0008A819B81938382832115310509F0B0CFA9
:10320000F0934A05E09349059ECFFD01DC01C0CF54
:1032100013821282D7CFFB01DC014150504048F0AD
:1032200001900D920020C9F701C01D9241505040FD
:08323000E0F70895F894FFCFC8
:10323800FF130000004B058000000000000402643A
:103248000191015102C201A001B40100000000DA9D
:1032580006AD0609078306A606930684064D61781F
:1032680020736572766F7320617474616368656436
:1032780000556E6B6E6F776E2070696E206D6F648F
:1032880065004932433A20546F6F206D616E792092
:10329800627974657320726563656976656400494F
:1032A80032433A20546F6F206665772062797465DF
:1032B800732072656365697665640031302D6269D3
:1032C800742061646472657373696E67206E6F74CD
:1032D80020737570706F7274656400746F6F206D01
:1032E800616E79207175657269657300433A5C5047
:1032F800726F6772616D2046696C65732028783833
:1033080036295C41726475696E6F5C6C69627261C2
:10331800726965735C4669726D6174615C65786138
:103328006D706C65735C5374616E64617264466938
:10333800726D6174615C5374616E64617264466934
:0A334800726D6174612E696E6F00F2
:00000001FF
